:020000040800F2
:100000005007002065010008BD180008BB18000853
:1000100000000000000000000000000000000000E0
:10002000000000000000000000000000C1180008EF
:100030000000000000000000BF180008C3180008FE
:100040007701000800000000770100087701000830
:1000500077010008770100087701000877010008A0
:100060000000000077010008770100087701000810
:100070007701000877010008770100080000000000
:10008000CD18000877010008770100087701000803
:100090007701000877010008770100087701000860
:1000A000770100087701000877010008451C000867
:1000B00077010008770100080000000077010008C0
:1000C00000F002F800F03EF80CA030C80838241800
:1000D0002D18671EA246AB4654465D46AC4201D180
:1000E00000F030F87E460F3EB6460FCC0126334274
:1000F00000D0FB1A3343A246AB461847202000002D
:1001000040200000103A02D378C878C1FAD85207CC
:1001100001D330C830C101D504680C6070470000BD
:100120000023002400250026103A01D378C1FBD813
:10013000520700D330C100D50B6070471FB51FBDFB
:1001400010B510BD00F02DF81146FFF7F7FF01F0D4
:100150007FFD00F045F803B4FFF7F2FF03BC00F0A9
:100160004BF800000748804707480047FEE7FEE7D6
:10017000FEE7FEE7FEE7FEE704480549054A064BB1
:1001800070470000CB180008C10000085001002093
:100190005007002050030020500300207047704794
:1001A0007047754600F024F8AE4605006946534690
:1001B000C008C000854618B020B5FFF7DDFF60BC61
:1001C000B64600260027C0C5C0C5C0C5C0C5C0C54D
:1001D000C0C5C0C5C0C5403D490849008D467047EF
:1001E00010B50446C046C0462046FFF7B4FF10BD18
:1001F000004870471000002001491820ABBEFEE700
:1002000026000200704710B52121425C01462031D2
:10021000022A12D1026813680E24A34313601368E4
:100220000124A3431360C26B006C234683405360D8
:100230004C70002000220A7010BD0422826301204D
:1002400000220A7010BDB0B52121415C022918D1ED
:1002500001462031026813680E24A343136013681B
:100260000125AB431360C26B036C2C469C40546069
:1002700000240C704D70416B002900D08847204647
:10028000B0BD042181630120B0BD0000B0B50446BB
:1002900000F004F90546601C02D0B6480078041945
:1002A00000F0FCF8401BA042FAD3B0BDF0B58EB010
:1002B00007466E48874201D0052000E003200090E9
:1002C00008680C90002800D1CEE00123002403939D
:1002D0000B940A940791099711E00C9A1043644A11
:1002E000D06008680C90D840241D5B1C0B9A921CAF
:1002F0000B920A9A521C0A92002800D1B4E05A1EAE
:100300000398089290400C9A02400C92E9D0059311
:100310004B6803261A463240551E012D069402935F
:1003200018D803260B9FBE40099CA168B143079DC6
:10033000ED68BD400D43A560D906C90F089DA940D1
:10034000656885430D436560069C0799F3430A98E9
:1003500045000BE030460B9DA840C343032A05D15E
:1003600004930B983246099F029B22E0099F2E4678
:10037000F86818408D680196B5400543FD60022A73
:10038000049314D11C2020400F218140089AD208E8
:100390009200BA18156A8D4307990E6986402E435C
:1003A00007991662099F4B6803221A4000E0029BDE
:1003B000019882403868049D2840104338609803B3
:1003C000800F059B8DD0764A10680121084310608C
:1003D000106808400D900C2222400F259540032004
:1003E000089E86430D98234C3059A8433519092699
:1003F000F606099CB442099F09D01F4CA74207D0BA
:100400001E498F420099069C03D1022101E0002180
:10041000069C9140014329601548006807994D6882
:10042000EA0302D50C9A104301E00C9A9043104A5B
:1004300010605068AA0302D50C9A104301E00C9A90
:1004400090430B4A50609068EA0202D50C9A104320
:1004500001E00C9A9043064A9060D068AA0200D549
:100460003BE70C9A90433AE70EB0F0BD000C004811
:100470000004014008000140000400480008004852
:1004800000690840411E88417047002A02D01822A6
:100490008150704728228150704700001E48006834
:1004A0007047C046B0B5002823D004460068134901
:1004B00001601349016061684160A1688160FFF7D4
:1004C000EDFF05462068C16849070AD0FFF7E6FF3F
:1004D000411B20682829F6D3C1684907F3D00320BF
:1004E000B0BDE16802698A4205D106490160002079
:1004F000B0BD0120B0BD01610020B0BDCCCC00007A
:1005000055550000AAAA00001A48007802490A6856
:10051000101808607047C0464C01002080B5C948DB
:10052000016810220A430260032000F005F800F081
:1005300023F8002080BDC04670B504467D20C00071
:100540000C4E317801F0D2FC0146C648006801F03B
:10055000CDFC00F0B1FB0125032C08D8002806D102
:100560000025E84321462A4600F028F87460284612
:1005700070BDC0460000002082B009480168012219
:10058000114301600168114001910199110742680E
:100590000A434260406808400090009802B07047EB
:1005A00018100240002805D41F2108400121814075
:1005B000014801607047C04600E100E0002805D412
:1005C0000322034693430C4A9A1806E00F22024086
:1005D000083A03239A43074BD2188007C00E8901BB
:1005E000C9B28140FF2383401068984308431060DC
:1005F0007047C0461CED00E000E400E0F0B585B0B7
:1006000004468078C007414B4FD00120039001077A
:100610001A1F10680840029006D110680843106045
:10062000106808400490049800920191384E306898
:10063000C00513D403980702306838433060FFF7D1
:100640002DFF05463068384208D1FFF727FF401BD1
:100650006428F7D90325284605B0F0BD03252802F4
:100660002A4B1968014012D06268024091420ED0B4
:100670000398000419681A6802431A601A688243D2
:100680001A600846234A10401860C80730D118681D
:10069000204908406168014319600298002804D18C
:1006A000009A10680199884310602068C10705D13D
:1006B00081060BD400258003CDD510E019690322F3
:1006C0009143A2680A431A618106F3D51969102281
:1006D0009143E2680A431A6100258003BBD518697B
:1006E00080218843216901431961284605B0F0BD86
:1006F000FFF7D4FE0646544F044B18688007C6D453
:10070000FFF7CCFE801BB842F6D9A4E720100240C8
:1007100000700040FFFCFFFFF0B581B0002861D001
:100720000446484A1368012003408B4208D21368EC
:100730000126B3430B431360126832408A424ED104
:10074000009121688A07544B11D54A0707D5072223
:100750001202514B1B6813434F4A13604E4B1A68E9
:10076000F0239A43A36813434B4A13604A4BC907CB
:100770003CD13449086801263040009A904205D99E
:100780000868B04308600868C00728D1207840078F
:1007900006D50720000219688143E0680843186005
:1007A00019680C220A403D48082A0CD18902090F19
:1007B0003B4A545C996A0F220A403A49895C01F02D
:1007C00095FB354B604319680906090F1F4A515CB8
:1007D000C840244908600320FFF7AEFE00263046DB
:1007E00001B0F0BD0126304601B0F0BD61681A1FAE
:1007F000022906D0012909D1126892030646EED5D6
:1008000008E0126892010646E9D503E012689207F3
:100810000646E4D518680326B04308431860FFF77E
:100820003DFE0746084D1C4B18680C2101406068CE
:10083000800081429DD0FFF731FEC01BA842F2D953
:10084000CDE7C0460020024088130000E2200008E7
:1008500004480068104909684905490F024A515C7B
:10086000C840704708000020F220000810B50A496F
:100870000A680C2313400948082B0BD19202120F6F
:10088000074B9C5C896A0F220A400649895C01F08B
:100890002DFB604310BDC0460410024000127A00D8
:1008A000FA2000080A210008F0B587B004460120AC
:1008B000002C00D1F5E104902078C007FB4E059490
:1008C00019D071680C20014004290DD071680140D5
:1008D000082900D0C0E00320C00371680140012056
:1008E0000004814200D0B7E03068800303D560681F
:1008F000002800D118E1207880071FD57068000714
:10090000800F0CD070680C21014008297AD1032097
:10091000C003716801400120C003814272D1306878
:100920008007059C03D5E068012800D0FCE0306812
:10093000F82188432169C90001433160059C207872
:10094000000724D42078400736D42078C00600D48D
:10095000C5E005984069411D00D1B4E0012800D0F0
:1009600007E1706B042101437163706B0121014346
:100970007163FFF793FD0546706B800700D5A6E015
:10098000FFF78CFD411B03200229F5D989E1706A2C
:10099000E169002974D0012108437062FFF77EFDF0
:1009A0000546706A8007CDD4FFF778FD401B02280A
:1009B000F7D9032007B0F0BD012003900107F069CB
:1009C0000840029006D1F0690843F061F0690840E0
:1009D000069006980191B64F3868C00528D4039850
:1009E0000402386820433860FFF758FD0546386830
:1009F00020421DD1FFF752FD401B6428F7D9032088
:100A000007B0F0BD3068059CE16800294AD001219B
:100A100008433060FFF742FD05463068800786D402
:100A2000FFF73CFD401B0228F7D9032007B0F0BDBB
:100A3000059880689F4F002800D1AFE0052800D1BD
:100A4000C1E0012800D1C2E0306A039988433062D6
:100A5000306A04218843BDE0616801204704002911
:100A600000D1D0E0052900D1E4E0012900D1E5E082
:100A7000010432688A433260810430688843E0E0D0
:100A8000012188437062FFF709FD0546706A8007FF
:100A900000D457E7FFF702FD401B0228F6D90320D8
:100AA00007B0F0BD012188433060FFF7F7FC054631
:100AB0003068800700D441E7FFF7F0FC411B0320BA
:100AC0000229F5D9EDE0706B042188437063706BE7
:100AD000F821884305998969C90001437163059824
:100AE000046A002C1DD070680C21014008291ED119
:100AF000012C19D00320C20370680240F16A059CE2
:100B0000636A9A4210D10F221140E36A9942049B12
:100B100000D0C8E091040840A16A8842184600D07D
:100B2000BFE0002007B0F0BD049807B0F0BD012081
:100B3000020631680492914331604706FFF7AEFC2C
:100B40000546022C0BD1049C3068384200D188E065
:100B5000FFF7A4FC411B03200229F5D9A1E030686E
:100B60003842DED0FFF79AFC411B03200229F6D958
:100B700097E0706B042101437163706B012188431E
:100B80007063FFF78BFC0546706B8007A7D5FFF7F6
:100B900085FC411B03200229F6D982E0306A0399C3
:100BA00088433062306A042188433062FFF776FC64
:100BB0000546306A80071CD5FFF770FC411B0320F7
:100BC000B942F6D96DE0306A042101433162306ADE
:100BD000039908433062FFF761FC0546306A8007DD
:100BE00007D4FFF75BFC401BB842F7D9032007B0DE
:100BF000F0BD02980028059C00D0A6E6F069019996
:100C00008843F061A1E6010432688A4332608004BF
:100C1000316881433160FFF741FC0546059C30682F
:100C2000384200D167E6FFF739FC411B03206429F5
:100C3000F5D936E0810432680A4332600104306835
:100C400008433060FFF72AFC05463068384200D080
:100C500051E6FFF723FC401B6428F6D9032007B0B8
:100C6000F0BDF06A0F218843059AD16A0143F16211
:100C70007B20C00371688143906A0843516A014335
:100C80007160306820433060FFF708FC044630682C
:100C9000384200D045E7FFF701FC011B0320022981
:100CA000F5D907B0F0BD184607B0F0BD00100240FE
:100CB0000070004088130000401E010E01D001208A
:100CC00070470749074A5060074803680B400321F3
:100CD0008907591801600020906007211160704752
:100CE000FFFFFF0010E000E020ED00E070477047DC
:100CF00010B53C22825C012A01D1022010BD0246BF
:100D00003C3202235370006843687024A3430C688C
:100D10001C43836844606F4CA04205D0074CA0423E
:100D200002D0074CA04204D18024A3434968194350
:100D30008160002010700121517010BD0040014001
:100D4000002C01407047B0B504468020C5432068A0
:100D50000169890717D5C168890714D529467E31ED
:100D60000161012121778069800703D02046FFF7C8
:100D7000E9FF05E0204600F0B1F8204600F07EFAD9
:100D80000020207720680169490718D5C168490704
:100D900015D529467C3101610221217780698005C2
:100DA000800F03D02046FFF7CDFF05E0204600F07E
:100DB00095F8204600F062FA00202077206801694B
:100DC000090717D5C168090714D52946783101618B
:100DD00004212177C069800703D02046FFF7B2FFC6
:100DE00005E0204600F07AF8204600F047FA00209F
:100DF000207720680169C90618D5C168C90615D5CC
:100E000029467031016108212177C0698005800F72
:100E100003D02046FFF796FF05E0204600F05EF87D
:100E2000204600F02BFA0020207720680169C907CE
:100E300009D0C168C90706D029467F310161204623
:100E400000F0C8FA20680169090607D5C1680906DB
:100E500004D505612046FFF749FF2068016949066E
:100E600009D5C168490606D52946403101612046A9
:100E700000F0B1FA20680169890607D5C1688906C2
:100E800004D5603505612046FFF731FFB0BD000095
:100E900080B586B00068F749884201D006B080BDB1
:100EA0000D48016801220592520411430160006857
:100EB00010400090002004900390022002908020B7
:100EC00001900920C006009901A9FFF7EFF906B0CB
:100ED00080BDC0460004004014100240704700006E
:100EE000F0B583B03C23C35C012B02D1022003B0D8
:100EF000F0BD07463C370223DA41032A39D802976E
:100F00007A4412795200974401394C610268146A9C
:100F1000012084431462C84C14190A25EC41156A57
:100F20009D438E682E43536800930B680193956927
:100F3000072C00D9E9E00346A340E1273B4200D15A
:100F4000E7E00C239E43CB680427BB433343029F57
:100F5000072C00D9E2E0A040E124204200D1DDE0EE
:100F600003200002009E86434C6988693443044391
:100F7000D5E001200021397003B0F0BD0268106A8D
:100F8000102398431062136A20208343886800016D
:100F9000184356680D689469E84B9A4250D007464A
:100FA00055E0012423020268106A9843106260022F
:100FB000136A834388680002184356680B680193DC
:100FC000D569DE4B9A426ED0074675E001263303A1
:100FD0000268106A98431062D54813180A20C3416A
:100FE000156A50688C680F680197D769072B00D97C
:100FF000B1E0009434469C40E1231C4200D1ACE0B7
:10100000B30398434B699B010343009C10461C307B
:10101000536073231B029F43019B1B023B43D3611D
:101020004B68136473039D4323032B431362F30242
:10103000D4691C43D461B302D4699C43D4612FE0CA
:10104000C0239843CB681F0140239F430743DE48DA
:1010500010180A23D84107280DD801238340E12026
:10106000034208D003208002864348698B698000D0
:1010700030439E00064310461830566073231B020F
:101080009C432B02234393614B68936317620123B4
:10109000DC029569254395619B0294699C439461A8
:1010A000096909022FE003239B0298432C4BFF3B65
:1010B000CF683F021F400743C34810180A23D84196
:1010C00007280CD88440E120044208D00320000304
:1010D000864348698B69000130431E010643104670
:1010E0001C30566073239D43019B1D43D5614B68A3
:1010F000D3631762D36908241C43D461D3690424E1
:10110000A343D3610969029F1DE03346072C05D82C
:1011100021E73346029F072C00D81CE7009C1046AD
:10112000183054607324A543019C254395614C6895
:1011300054631362936908241C43946193690424E3
:10114000A3439361096902680A43026000200021F9
:10115000397003B0F0BD034658E7034655E7C04673
:10116000FFFBFFFFB0B5002824D0044605463C3500
:101170006878002804D100202870204600F05EF82E
:1011800002206870206803686C4A904202D0694966
:10119000884211D170218B43A1681943224B984298
:1011A0000EDC644B984214D0224B984211D09042EE
:1011B0000FD037E00120B0BD19461B4B9842F0DD3F
:1011C0005D4A904205D0194A904202D0184A904296
:1011D00028D103221202914322690A4380218A43C3
:1011E000A16911430160E168C16261688162764969
:1011F00041180A22D141072906D801228A40E1215B
:101200000A4201D06169016301214161A972A9709B
:10121000E97029716971A971E9712972697269703E
:101220000020B0BD0A46D9E7FF3F01400048014019
:10123000004401400020004000D4FEBF10B582B041
:1012400000683C49884201D002B010BD0A480168DC
:10125000022211430160006810400190019810249F
:10126000002120460A46FFF7A9F92046FFF79AF920
:1012700002B010BD000400401C1002407047000086
:1012800002463E32002908D008290CD0042910D18A
:10129000531C1B78012B0AD10FE01378012B06D1C8
:1012A0000223137013E0931C1B78012B05D001203F
:1012B0007047D31C1B78012BF9D10223082903D0D6
:1012C000042903D1537002E0937000E0D3701F2211
:1012D0001140012213468B400068016A9943016264
:1012E000016A19430162384941180A23D941072983
:1012F00008D813468B40E1210B4203D0D103436C45
:101300000B4343640B49884205D00B49884202D005
:101310000A49884206D1816807230B40062B01D178
:101320000020704701681143016000207047C046EB
:1013300000D4FEBF0004004000400140002C0140EA
:1013400070B51F230B40012214469C4003681D6AA0
:10135000A5431D621C6A1C621B4C1D190A24E54131
:101360001A4C072D0BD81646AE40E1252E4206D06A
:101370001D6A254203D11D6A154E35420AD01D6AE9
:1013800025420ED11C6A124D2C420AD11C6894438E
:101390001C6006E0D5035E6CAE435E641D6A2542A8
:1013A000F0D03E30082906D0042907D0002908D102
:1013B0000270002070BD8270002070BD427000205D
:1013C00070BDC270002070BD00D4FEBF11110000BE
:1013D000440400007047704770477047F0B589B00B
:1013E0000368D9691F6820220797049217407C423E
:1013F0007C410125EA0216462F3608910E40203E18
:10140000711E8E4126439E6855D002970393059521
:1014100006900746583711460F3108980842079D35
:1014200006D0D449294001231E40711800D084E021
:1014300002971023294619404E424E4108991940FF
:101440004F424F410698016E0129059804460399C1
:1014500037D13C46002C044636D0002C069F37D0AE
:10146000802129400346484248410899090600D591
:101470000346002B00D1DAE0402005406B426B416F
:101480000899490600D505930599002911D1EFF374
:101490001081012282F310883A6813688343136035
:1014A00081F310880020B8660498B867384600F0C9
:1014B00003FA09B0F0BD416E0029FAD0884709B09F
:1014C000F0BD002C0446C8D13446002C069FC7D17D
:1014D0000B628868400600D5B1E0029A50881188F6
:1014E0005288002AE5D0081A0104E2D0EFF31082F6
:1014F000012181F31088092464013D682E68A64308
:101500002E6082F31088EFF3108281F310883C681C
:10151000A5688D43A56082F31088049AFA670022BB
:101520007A663A66EFF3108281F3108839680C68A6
:101530009C430C6082F31088C8E001921902294094
:101540004C424C41089DE90705980146039A00D09A
:101550002146002903D11362B96A1943B962744262
:101560007441A907014600D52146002905D1022171
:101570001162B96A04240C43BC6274427441690765
:1015800001460BD5214600290AD104211162B96A0E
:1015900002240C43BC6229070CD503E00029F4D0D7
:1015A000290707D502990E4304D008211162BC6AAD
:1015B0000C43BC629906079A0A40544254412A4699
:1015C00001990D42054600D02546002D06D103980D
:1015D00001990162B96A04980143B962B96A0029A4
:1015E000069D029900D164E73846049E32404C4281
:1015F0004C41002A00D0059405990029044603981F
:101600001F4605D1696E002902D028468847286800
:10161000A16A28230B40816840200140C9185BD192
:101620002846FFF7DAFE0020A06209B0F0BDB96ECF
:10163000002900D13DE73846884709B0F0BD396F31
:101640000868426894B2002C00D132E70298008802
:10165000844200D32DE7029E72808969202933D00D
:10166000EFF31081012080F31088444A20323C6857
:1016700025681540256081F31088EFF3108180F311
:1016800010883A6894688443946081F31088EFF37B
:10169000108180F310883A6894684025AC439460C8
:1016A00081F310880499F96700213966EFF31081FE
:1016B00080F31088386802689A43026081F31088CA
:1016C000386FFEF7A0FD30887188401A81B2384625
:1016D000FFF782FE09B0F0BDEFF3108187F31088A9
:1016E000092252012B681C6894431C6081F3108806
:1016F000EFF3108187F310882A6893680897BB433B
:10170000936081F31088296E01290BD1EFF31081CA
:10171000089A82F310882A6813681024A343136080
:1017200081F31088EE670021296669662968896857
:10173000490619D5EFF31081089A82F310882A68B8
:1017400093688343936081F31088286F00280BD03F
:1017500009494163FEF777FD002800D1A9E6286F0B
:10176000416B884709B0F0BD2846FFF736FE09B047
:10177000F0BDC04620010004AF190008DFFEFFFFE6
:10178000F0B583B0002840D0044607467437806F18
:10179000002804D100203870204600F057F824209B
:1017A000A067206801680125A9430160204600F078
:1017B00009F9012826D0606A002802D0204600F0EE
:1017C0008DF80126F00221684A6882434A608868E1
:1017D0000822904388600868304308600025FD6057
:1017E000FEF75CFE034620680168090713D516481A
:1017F0000090710500222046029300F087F900282E
:1018000007D00325284603B0F0BD0125284603B0C4
:10181000F0BD2068029B006840070CD50A48009084
:10182000B1050022204600F071F9002803D00325FD
:10183000284603B0F0BD2020A067E0673D70256614
:10184000284603B0F0BDC046FFFFFF01B0B586B02B
:101850000068A449884201D006B0B0BD154841686F
:101860000122059293031943416041681940009198
:101870000099510402680A43026000680840009021
:10188000002403940220029003200490400201905F
:1018900000980920C00601A9FEF708FD1B2528466F
:1018A00021462246FEF78AFE2846FEF77BFE06B05A
:1018B000B0BDC046141002407047FEE7FEE7704717
:1018C000704780B5FEF720FE80BD704780B50248A6
:1018D000FFF739FA80BDC04680000020B0B5416AEC
:1018E000CA070CD18A0714D44A071CD40A0724D487
:1018F000CA062CD48A0634D44A063CD44CE00122D1
:10190000520403685C689443826A22435A608A07DF
:10191000EAD50122120403685C689443C26A224338
:101920005A604A07E2D50122920403685C68944336
:10193000026B22435A600A07DAD50122D2030368F8
:101940005C689443426B22435A60CA06D2D5012296
:10195000120303689C689443826B22439A608A0650
:10196000CAD50122520303689C689443C26B224388
:101970009A604A0610D501221305026854689C43F8
:10198000056C2C4354609D4206D103235B055468CB
:101990009C43436C23435360090607D50121C904C6
:1019A000026853688B43806C18435060B0BD80B5AB
:1019B000406A0146523100220A8152214252FFF709
:1019C0000CFD80BDB0B5044600680168424A0A407B
:1019D000A16823690B4365691D43E1690D43154304
:1019E00005600322120343689343E2681A4342608E
:1019F000A269236A13430B221202856895431D4393
:101A000085600022354B984206DC374B984211D056
:101A1000364B98420ED00CE0314B98420AD0314AF6
:101A2000904206D1324800688007000F31A2125858
:101A300000E010220125EB033248994210D1082A18
:101A400044D8C0467A44127952009744043F203F5C
:101A5000193F3F3F1F00FEF7FBFE002817D113E0A0
:101A6000082A33D87A44127952009744042F242F3D
:101A70001D2F2F2F2300FEF7EBFE00281BD117E0B0
:101A8000FEF7F4FE002802D100251FE018464000B2
:101A900061684A08101800F029FA1B49014015D066
:101AA0000007400F08430EE0FEF7E0FE002802D1D9
:101AB00000250BE0184661684A08101800F016FA75
:101AC00080B2102802D32168C8600025002060661B
:101AD000A0662846B0BDC046F369FFEFFF4B00404B
:101AE000004C0040003801400044004000480040E5
:101AF0003010024000000000040000000800000058
:101B00000200000000127A00F0FF0000F0B587B07C
:101B100016460F4605460468E1693940C91B4A422A
:101B20004A410020B24224D1069304952A467432D9
:101B30000C9D002D1FD0691C43D1E1693940C91BA0
:101B40004A424A41B24214D1E1693940C91B4A4272
:101B50004A41B2420DD1E1693940C91B4A424A416A
:101B6000B24206D1E1693940C91B4A424A41B242F8
:101B7000E3D007B0F0BD0392FEF790FC049CEFF3B6
:101B80001081012080F310880D22520123681D6806
:101B900095431D6081F31088EFF3108180F3108866
:101BA000226893688343936081F310882020A067A4
:101BB0007C3403990020087020202060032007B0A7
:101BC000F0BD0392029001200190C0020590049C98
:101BD00006E0C0693840C01B41424141B1422DD1AD
:101BE000FEF75CFC0699401AA842C8D82068016834
:101BF0004907EED5C169059A1142EAD005990162FB
:101C0000EFF31080019D85F310880D2149012268B2
:101C100013688B43136080F31088EFF3108085F313
:101C2000108821688A68AA438A6080F3108820207F
:101C3000A067E06703990C460C34BBE7029807B035
:101C4000F0BD000080B5A648FFF7C8FB80BDC046C8
:101C500098B0FEF763FC00261296119610960F9628
:101C60000E96179601200105169101041591022583
:101C7000149513900D9009240C94069605960496DD
:101C800003960CA8FEF710FE002803D0EFF3108097
:101C900072B6FEE70B960A9609950720089008A8E9
:101CA00001252946FEF738FD002803D0EFF3108008
:101CB00072B6FEE70496029502A8FEF79FFC002884
:101CC00003D0EFF3108072B6FEE71096A9057E48A8
:101CD00002680A43026002680A400292029969049B
:101CE00002680A43026002680A4002920299A9044B
:101CF00002680A4302600068084002900298E40605
:101D00004127204639463246FEF7BFFB7F20C101FE
:101D100001916E483246FEF7B8FB0F960E960D9570
:101D20000C970CAD20462946FEF7C0FA0E960D968C
:101D3000C12040010C9020462946FEF7B7FA0F96C5
:101D40000E9611200D9001980C9060482946FEF7E0
:101D5000ADFA5F4D5F48604942C528606860083D44
:101D60002846FEF79FFB002803D0EFF3108072B6E1
:101D7000FEE7AE623020594929616E61AE61E861CB
:101D80002E62039602961296119610960F961035B3
:101D90002846FFF7E7F9002803D0EFF3108072B66A
:101DA000FEE702A92846FEF7A3FF002803D0EFF3C1
:101DB000108072B6FEE710960E9618200D906020E7
:101DC0000C900CA904222846FFF78AF8002803D0BB
:101DD000EFF3108072B6FEE72846FFF759F8404847
:101DE0000C21E12252023F4B036042608660C660D4
:101DF000066141618661C66106624662FFF7C0FC0A
:101E0000002803D0EFF3108072B6FEE7364E03E0F1
:101E100004212846FFF794FA0121002720463A467C
:101E2000FEF733FB402120463A46FEF72EFB2021E9
:101E30002046FEF725FB0028EAD0FA20FEF726FA16
:101E400020212046FEF71CFB0028E1D00127204678
:101E500039463A46FEF719FB402120463A46FEF73E
:101E600014FB04212846FFF70BFA3046FEF70EFA62
:101E70003046FEF70BFA3046FEF708FA3046FEF71A
:101E800005FA3046FEF702FA3046FEF7FFF9304613
:101E9000FEF7FCF93046FEF7F9F93046FEF7F6F9A1
:101EA0003046FEF7F3F93046FEF7F0F93046FEF71C
:101EB000EDF93046FEF7EAF93046FEF7E7F930462D
:101EC000FEF7E4F9A4E7C0461410024000040048FD
:101ED00070000020FF0F00000030004000040040B0
:101EE000C80000200038014060EA000043088B422F
:101EF0001AD3002203098B4279D3030A8B425ED3A3
:101F0000030B8B4242D3030C8B4227D30902FF22DF
:101F100012BA030C8B4202D31212090203D0030B34
:101F20008B4233D31AE0D3E0411A8041401C704702
:101F300003460B4371D443088B42F5D300220309B7
:101F40008B4254D3030A8B4239D3030B8B421DD3EC
:101F5000030C8B4202D394466EE0090AC30B8B42FA
:101F600001D3CB03C01A5241830B8B4201D38B03A5
:101F7000C01A5241430B8B4201D34B03C01A52414A
:101F8000030B8B4201D30B03C01A5241C30A8B428D
:101F900001D3CB02C01A5241830A8B4201D38B0278
:101FA000C01A5241430A8B4201D34B02C01A52411C
:101FB000030A8B4201D30B02C01A5241CDD2C3098E
:101FC0008B4201D3CB01C01A524183098B4201D30A
:101FD0008B01C01A524143098B4201D34B01C01AF5
:101FE000524103098B4201D30B01C01A5241C3086D
:101FF0008B4201D3CB00C01A524183088B4201D3DC
:102000008B00C01A524143088B4201D34B00C01AC7
:102010005241411A524110007047CA0F00D0494244
:10202000031000D34042534000229C4603098B42D8
:102030002DD3030A8B4212D38901FC2212BA030A60
:102040008B420CD3890192118B4208D389019211E2
:102050008B4204D3890137D0921100E08909C3096A
:102060008B4201D3CB01C01A524183098B4201D369
:102070008B01C01A524143098B4201D34B01C01A54
:10208000524103098B4201D30B01C01A5241C308CC
:102090008B4201D3CB00C01A524183088B4201D33B
:1020A0008B00C01A5241D9D243088B4201D34B0056
:1020B000C01A5241411A00D20146524110466346AD
:1020C0005B1000D34042704763465B1000D3404230
:1020D00001B50021004201D0C9430846C046C046B0
:1020E00002BD00000000000000000102030406071A
:1020F00008090000000001020304020304050607AA
:1021000008090A0B0C0D0E0F10100102030405063E
:102110000708090A0B0C0D0E0F10000040210008E3
:1021200000000020100000000401000850210008F9
:1021300010000020400700002001000800000000FF
:10214000010000000400000000127A0000000000FE
:04000005080000C12E
:00000001FF
